{
  "_format": "hh-sol-artifact-1",
  "contractName": "MyEpicNFT",
  "sourceName": "contracts/MyEpicNFT.sol",
  "abi": [
    {
      "inputs": [],
      "stateMutability": "nonpayable",
      "type": "constructor"
    },
    {
      "anonymous": false,
      "inputs": [
        {
          "indexed": true,
          "internalType": "address",
          "name": "owner",
          "type": "address"
        },
        {
          "indexed": true,
          "internalType": "address",
          "name": "approved",
          "type": "address"
        },
        {
          "indexed": true,
          "internalType": "uint256",
          "name": "tokenId",
          "type": "uint256"
        }
      ],
      "name": "Approval",
      "type": "event"
    },
    {
      "anonymous": false,
      "inputs": [
        {
          "indexed": true,
          "internalType": "address",
          "name": "owner",
          "type": "address"
        },
        {
          "indexed": true,
          "internalType": "address",
          "name": "operator",
          "type": "address"
        },
        {
          "indexed": false,
          "internalType": "bool",
          "name": "approved",
          "type": "bool"
        }
      ],
      "name": "ApprovalForAll",
      "type": "event"
    },
    {
      "anonymous": false,
      "inputs": [
        {
          "indexed": false,
          "internalType": "address",
          "name": "sender",
          "type": "address"
        },
        {
          "indexed": false,
          "internalType": "string",
          "name": "svg",
          "type": "string"
        },
        {
          "indexed": false,
          "internalType": "uint256",
          "name": "tokenId",
          "type": "uint256"
        }
      ],
      "name": "NewEpicNFTMinted",
      "type": "event"
    },
    {
      "anonymous": false,
      "inputs": [
        {
          "indexed": true,
          "internalType": "address",
          "name": "from",
          "type": "address"
        },
        {
          "indexed": true,
          "internalType": "address",
          "name": "to",
          "type": "address"
        },
        {
          "indexed": true,
          "internalType": "uint256",
          "name": "tokenId",
          "type": "uint256"
        }
      ],
      "name": "Transfer",
      "type": "event"
    },
    {
      "inputs": [
        {
          "internalType": "uint256",
          "name": "",
          "type": "uint256"
        }
      ],
      "name": "NFTToAddress",
      "outputs": [
        {
          "internalType": "address",
          "name": "",
          "type": "address"
        }
      ],
      "stateMutability": "view",
      "type": "function"
    },
    {
      "inputs": [
        {
          "internalType": "address",
          "name": "",
          "type": "address"
        }
      ],
      "name": "addressToNFTCount",
      "outputs": [
        {
          "internalType": "uint256",
          "name": "",
          "type": "uint256"
        }
      ],
      "stateMutability": "view",
      "type": "function"
    },
    {
      "inputs": [
        {
          "internalType": "address",
          "name": "to",
          "type": "address"
        },
        {
          "internalType": "uint256",
          "name": "tokenId",
          "type": "uint256"
        }
      ],
      "name": "approve",
      "outputs": [],
      "stateMutability": "nonpayable",
      "type": "function"
    },
    {
      "inputs": [
        {
          "internalType": "address",
          "name": "owner",
          "type": "address"
        }
      ],
      "name": "balanceOf",
      "outputs": [
        {
          "internalType": "uint256",
          "name": "",
          "type": "uint256"
        }
      ],
      "stateMutability": "view",
      "type": "function"
    },
    {
      "inputs": [],
      "name": "fetchCollection",
      "outputs": [
        {
          "components": [
            {
              "internalType": "string",
              "name": "svg",
              "type": "string"
            },
            {
              "internalType": "uint256",
              "name": "id",
              "type": "uint256"
            }
          ],
          "internalType": "struct MyEpicNFT.NFT[]",
          "name": "",
          "type": "tuple[]"
        }
      ],
      "stateMutability": "view",
      "type": "function"
    },
    {
      "inputs": [
        {
          "internalType": "uint256",
          "name": "tokenId",
          "type": "uint256"
        }
      ],
      "name": "getApproved",
      "outputs": [
        {
          "internalType": "address",
          "name": "",
          "type": "address"
        }
      ],
      "stateMutability": "view",
      "type": "function"
    },
    {
      "inputs": [
        {
          "internalType": "address",
          "name": "owner",
          "type": "address"
        },
        {
          "internalType": "address",
          "name": "operator",
          "type": "address"
        }
      ],
      "name": "isApprovedForAll",
      "outputs": [
        {
          "internalType": "bool",
          "name": "",
          "type": "bool"
        }
      ],
      "stateMutability": "view",
      "type": "function"
    },
    {
      "inputs": [],
      "name": "makeAnEpicNFT",
      "outputs": [],
      "stateMutability": "nonpayable",
      "type": "function"
    },
    {
      "inputs": [],
      "name": "name",
      "outputs": [
        {
          "internalType": "string",
          "name": "",
          "type": "string"
        }
      ],
      "stateMutability": "view",
      "type": "function"
    },
    {
      "inputs": [
        {
          "internalType": "uint256",
          "name": "tokenId",
          "type": "uint256"
        }
      ],
      "name": "ownerOf",
      "outputs": [
        {
          "internalType": "address",
          "name": "",
          "type": "address"
        }
      ],
      "stateMutability": "view",
      "type": "function"
    },
    {
      "inputs": [
        {
          "internalType": "uint256",
          "name": "tokenId",
          "type": "uint256"
        }
      ],
      "name": "pickRandomColor",
      "outputs": [
        {
          "internalType": "string",
          "name": "",
          "type": "string"
        }
      ],
      "stateMutability": "view",
      "type": "function"
    },
    {
      "inputs": [
        {
          "internalType": "uint256",
          "name": "tokenId",
          "type": "uint256"
        }
      ],
      "name": "pickRandomFirstWord",
      "outputs": [
        {
          "internalType": "string",
          "name": "",
          "type": "string"
        }
      ],
      "stateMutability": "view",
      "type": "function"
    },
    {
      "inputs": [
        {
          "internalType": "uint256",
          "name": "tokenId",
          "type": "uint256"
        }
      ],
      "name": "pickRandomSecondWord",
      "outputs": [
        {
          "internalType": "string",
          "name": "",
          "type": "string"
        }
      ],
      "stateMutability": "view",
      "type": "function"
    },
    {
      "inputs": [
        {
          "internalType": "uint256",
          "name": "tokenId",
          "type": "uint256"
        }
      ],
      "name": "pickRandomThirdWord",
      "outputs": [
        {
          "internalType": "string",
          "name": "",
          "type": "string"
        }
      ],
      "stateMutability": "view",
      "type": "function"
    },
    {
      "inputs": [
        {
          "internalType": "address",
          "name": "from",
          "type": "address"
        },
        {
          "internalType": "address",
          "name": "to",
          "type": "address"
        },
        {
          "internalType": "uint256",
          "name": "tokenId",
          "type": "uint256"
        }
      ],
      "name": "safeTransferFrom",
      "outputs": [],
      "stateMutability": "nonpayable",
      "type": "function"
    },
    {
      "inputs": [
        {
          "internalType": "address",
          "name": "from",
          "type": "address"
        },
        {
          "internalType": "address",
          "name": "to",
          "type": "address"
        },
        {
          "internalType": "uint256",
          "name": "tokenId",
          "type": "uint256"
        },
        {
          "internalType": "bytes",
          "name": "data",
          "type": "bytes"
        }
      ],
      "name": "safeTransferFrom",
      "outputs": [],
      "stateMutability": "nonpayable",
      "type": "function"
    },
    {
      "inputs": [
        {
          "internalType": "address",
          "name": "operator",
          "type": "address"
        },
        {
          "internalType": "bool",
          "name": "approved",
          "type": "bool"
        }
      ],
      "name": "setApprovalForAll",
      "outputs": [],
      "stateMutability": "nonpayable",
      "type": "function"
    },
    {
      "inputs": [
        {
          "internalType": "bytes4",
          "name": "interfaceId",
          "type": "bytes4"
        }
      ],
      "name": "supportsInterface",
      "outputs": [
        {
          "internalType": "bool",
          "name": "",
          "type": "bool"
        }
      ],
      "stateMutability": "view",
      "type": "function"
    },
    {
      "inputs": [],
      "name": "symbol",
      "outputs": [
        {
          "internalType": "string",
          "name": "",
          "type": "string"
        }
      ],
      "stateMutability": "view",
      "type": "function"
    },
    {
      "inputs": [
        {
          "internalType": "uint256",
          "name": "tokenId",
          "type": "uint256"
        }
      ],
      "name": "tokenURI",
      "outputs": [
        {
          "internalType": "string",
          "name": "",
          "type": "string"
        }
      ],
      "stateMutability": "view",
      "type": "function"
    },
    {
      "inputs": [
        {
          "internalType": "address",
          "name": "from",
          "type": "address"
        },
        {
          "internalType": "address",
          "name": "to",
          "type": "address"
        },
        {
          "internalType": "uint256",
          "name": "tokenId",
          "type": "uint256"
        }
      ],
      "name": "transferFrom",
      "outputs": [],
      "stateMutability": "nonpayable",
      "type": "function"
    }
  ],
  "bytecode": "0x608060405260405180610100016040528060d3815260200162004cb260d39139600b90816200002f919062000b77565b5060405180608001604052806056815260200162004d8560569139600c90816200005a919062000b77565b506040518060c001604052806040518060400160405280600481526020017f4e616d690000000000000000000000000000000000000000000000000000000081525081526020016040518060400160405280600681526020017f4d696861776b000000000000000000000000000000000000000000000000000081525081526020016040518060400160405280600581526020017f55736f707000000000000000000000000000000000000000000000000000000081525081526020016040518060400160405280600a81526020017f446f666c616d696e676f0000000000000000000000000000000000000000000081525081526020016040518060400160405280600681526020017f416b61696e75000000000000000000000000000000000000000000000000000081525081526020016040518060400160405280600381526020017f4163650000000000000000000000000000000000000000000000000000000000815250815250600d906006620001d892919062000810565b506040518060c001604052806040518060400160405280600a81526020017f456e7465727461696e730000000000000000000000000000000000000000000081525081526020016040518060400160405280600481526020017f456174730000000000000000000000000000000000000000000000000000000081525081526020016040518060400160405280600681526020017f466967687473000000000000000000000000000000000000000000000000000081525081526020016040518060400160405280600481526020017f487567730000000000000000000000000000000000000000000000000000000081525081526020016040518060400160405280600581526020017f487572747300000000000000000000000000000000000000000000000000000081525081526020016040518060400160405280600681526020017f4368617365730000000000000000000000000000000000000000000000000000815250815250600e9060066200035692919062000810565b506040518060c001604052806040518060400160405280600581526020017f4c7566667900000000000000000000000000000000000000000000000000000081525081526020016040518060400160405280600481526020017f5a6f726f0000000000000000000000000000000000000000000000000000000081525081526020016040518060400160405280600681526020017f5368616e6b73000000000000000000000000000000000000000000000000000081525081526020016040518060400160405280600781526020017f43686f707065720000000000000000000000000000000000000000000000000081525081526020016040518060400160405280600681526020017f416f6b696a69000000000000000000000000000000000000000000000000000081525081526020016040518060400160405280600581526020017f4b6169646f000000000000000000000000000000000000000000000000000000815250815250600f906006620004d492919062000810565b506040518060c001604052806040518060400160405280600381526020017f726564000000000000000000000000000000000000000000000000000000000081525081526020016040518060400160405280600681526020017f707572706c65000000000000000000000000000000000000000000000000000081525081526020016040518060400160405280600581526020017f626c61636b00000000000000000000000000000000000000000000000000000081525081526020016040518060400160405280600681526020017f79656c6c6f77000000000000000000000000000000000000000000000000000081525081526020016040518060400160405280600481526020017f626c75650000000000000000000000000000000000000000000000000000000081525081526020016040518060400160405280600581526020017f677265656e00000000000000000000000000000000000000000000000000000081525081525060109060066200065292919062000810565b503480156200066057600080fd5b506040518060400160405280600981526020017f5371756172654e465400000000000000000000000000000000000000000000008152506040518060400160405280600681526020017f53515541524500000000000000000000000000000000000000000000000000008152508160009081620006de919062000b77565b508060019081620006f0919062000b77565b5050506200073e6040518060400160405280601c81526020017f54686973206973206d79204e465420636f6e74726163742062727568000000008152506200074460201b620015b71760201c565b62000d11565b620007e4816040516024016200075b919062000ced565b6040516020818303038152906040527f41304fac000000000000000000000000000000000000000000000000000000007bffffffffffffffffffffffffffffffffffffffffffffffffffffffff19166020820180517bffffffffffffffffffffffffffffffffffffffffffffffffffffffff8381831617835250505050620007e760201b60201c565b50565b60008151905060006a636f6e736f6c652e6c6f679050602083016000808483855afa5050505050565b8280548282559060005260206000209081019282156200085d579160200282015b828111156200085c5782518290816200084b919062000b77565b509160200191906001019062000831565b5b5090506200086c919062000870565b5090565b5b808211156200089457600081816200088a919062000898565b5060010162000871565b5090565b508054620008a69062000966565b6000825580601f10620008ba5750620008db565b601f016020900490600052602060002090810190620008da9190620008de565b5b50565b5b80821115620008f9576000816000905550600101620008df565b5090565b600081519050919050565b7f4e487b7100000000000000000000000000000000000000000000000000000000600052604160045260246000fd5b7f4e487b7100000000000000000000000000000000000000000000000000000000600052602260045260246000fd5b600060028204905060018216806200097f57607f821691505b60208210810362000995576200099462000937565b5b50919050565b60008190508160005260206000209050919050565b60006020601f8301049050919050565b600082821b905092915050565b600060088302620009ff7fffffffffffffffffffffffffffffffffffffffffffffffffffffffffffffffff82620009c0565b62000a0b8683620009c0565b95508019841693508086168417925050509392505050565b6000819050919050565b6000819050919050565b600062000a5862000a5262000a4c8462000a23565b62000a2d565b62000a23565b9050919050565b6000819050919050565b62000a748362000a37565b62000a8c62000a838262000a5f565b848454620009cd565b825550505050565b600090565b62000aa362000a94565b62000ab081848462000a69565b505050565b5b8181101562000ad85762000acc60008262000a99565b60018101905062000ab6565b5050565b601f82111562000b275762000af1816200099b565b62000afc84620009b0565b8101602085101562000b0c578190505b62000b2462000b1b85620009b0565b83018262000ab5565b50505b505050565b600082821c905092915050565b600062000b4c6000198460080262000b2c565b1980831691505092915050565b600062000b67838362000b39565b9150826002028217905092915050565b62000b8282620008fd565b67ffffffffffffffff81111562000b9e5762000b9d62000908565b5b62000baa825462000966565b62000bb782828562000adc565b600060209050601f83116001811462000bef576000841562000bda578287015190505b62000be6858262000b59565b86555062000c56565b601f19841662000bff866200099b565b60005b8281101562000c295784890151825560018201915060208501945060208101905062000c02565b8683101562000c49578489015162000c45601f89168262000b39565b8355505b6001600288020188555050505b505050505050565b600082825260208201905092915050565b60005b8381101562000c8f57808201518184015260208101905062000c72565b60008484015250505050565b6000601f19601f8301169050919050565b600062000cb982620008fd565b62000cc5818562000c5e565b935062000cd781856020860162000c6f565b62000ce28162000c9b565b840191505092915050565b6000602082019050818103600083015262000d09818462000cac565b905092915050565b613f918062000d216000396000f3fe608060405234801561001057600080fd5b50600436106101375760003560e01c806370a08231116100b8578063b6f6bc781161007c578063b6f6bc7814610386578063b88d4fde146103b6578063c575757a146103d2578063c87b56dd14610402578063de9d132f14610432578063e985e9c51461043c57610137565b806370a08231146102bc5780637811296a146102ec57806395d89b411461031c578063a22cb4651461033a578063b187301f1461035657610137565b806323b872dd116100ff57806323b872dd146101f45780632de38d681461021057806342842e0e14610240578063514dc8c61461025c5780636352211e1461028c57610137565b806301ffc9a71461013c57806306fdde031461016c578063081812fc1461018a578063095ea7b3146101ba5780630df38145146101d6575b600080fd5b6101566004803603810190610151919061264f565b61046c565b6040516101639190612697565b60405180910390f35b61017461054e565b6040516101819190612742565b60405180910390f35b6101a4600480360381019061019f919061279a565b6105e0565b6040516101b19190612808565b60405180910390f35b6101d460048036038101906101cf919061284f565b610626565b005b6101de61073d565b6040516101eb91906129e7565b60405180910390f35b61020e60048036038101906102099190612a09565b610963565b005b61022a6004803603810190610225919061279a565b6109c3565b6040516102379190612742565b60405180910390f35b61025a60048036038101906102559190612a09565b610abb565b005b6102766004803603810190610271919061279a565b610adb565b6040516102839190612742565b60405180910390f35b6102a660048036038101906102a1919061279a565b610bd3565b6040516102b39190612808565b60405180910390f35b6102d660048036038101906102d19190612a5c565b610c84565b6040516102e39190612a98565b60405180910390f35b6103066004803603810190610301919061279a565b610d3b565b6040516103139190612808565b60405180910390f35b610324610d6e565b6040516103319190612742565b60405180910390f35b610354600480360381019061034f9190612adf565b610e00565b005b610370600480360381019061036b919061279a565b610e16565b60405161037d9190612742565b60405180910390f35b6103a0600480360381019061039b9190612a5c565b610f0e565b6040516103ad9190612a98565b60405180910390f35b6103d060048036038101906103cb9190612c54565b610f26565b005b6103ec60048036038101906103e7919061279a565b610f88565b6040516103f99190612742565b60405180910390f35b61041c6004803603810190610417919061279a565b611080565b6040516104299190612742565b60405180910390f35b61043a611192565b005b61045660048036038101906104519190612cd7565b611523565b6040516104639190612697565b60405180910390f35b60007f80ac58cd000000000000000000000000000000000000000000000000000000007bffffffffffffffffffffffffffffffffffffffffffffffffffffffff1916827bffffffffffffffffffffffffffffffffffffffffffffffffffffffff1916148061053757507f5b5e139f000000000000000000000000000000000000000000000000000000007bffffffffffffffffffffffffffffffffffffffffffffffffffffffff1916827bffffffffffffffffffffffffffffffffffffffffffffffffffffffff1916145b80610547575061054682611650565b5b9050919050565b60606000805461055d90612d46565b80601f016020809104026020016040519081016040528092919081815260200182805461058990612d46565b80156105d65780601f106105ab576101008083540402835291602001916105d6565b820191906000526020600020905b8154815290600101906020018083116105b957829003601f168201915b5050505050905090565b60006105eb826116ba565b6004600083815260200190815260200160002060009054906101000a900473ffffffffffffffffffffffffffffffffffffffff169050919050565b600061063182610bd3565b90508073ffffffffffffffffffffffffffffffffffffffff168373ffffffffffffffffffffffffffffffffffffffff16036106a1576040517f08c379a000000000000000000000000000000000000000000000000000000000815260040161069890612de9565b60405180910390fd5b8073ffffffffffffffffffffffffffffffffffffffff166106c0611705565b73ffffffffffffffffffffffffffffffffffffffff1614806106ef57506106ee816106e9611705565b611523565b5b61072e576040517f08c379a000000000000000000000000000000000000000000000000000000000815260040161072590612e7b565b60405180910390fd5b610738838361170d565b505050565b60606000600960003373ffffffffffffffffffffffffffffffffffffffff1673ffffffffffffffffffffffffffffffffffffffff1681526020019081526020016000205467ffffffffffffffff81111561079a57610799612b29565b5b6040519080825280602002602001820160405280156107d357816020015b6107c06125c9565b8152602001906001900390816107b85790505b5090506000805b6107e460076117c6565b81101561095a573373ffffffffffffffffffffffffffffffffffffffff166008600083815260200190815260200160002060009054906101000a900473ffffffffffffffffffffffffffffffffffffffff1673ffffffffffffffffffffffffffffffffffffffff160361094757600a818154811061086557610864612e9b565b5b906000526020600020906002020160405180604001604052908160008201805461088e90612d46565b80601f01602080910402602001604051908101604052809291908181526020018280546108ba90612d46565b80156109075780601f106108dc57610100808354040283529160200191610907565b820191906000526020600020905b8154815290600101906020018083116108ea57829003601f168201915b5050505050815260200160018201548152505083838151811061092d5761092c612e9b565b5b6020026020010181905250818061094390612ef9565b9250505b808061095290612ef9565b9150506107da565b50819250505090565b61097461096e611705565b826117d4565b6109b3576040517f08c379a00000000000000000000000000000000000000000000000000000000081526004016109aa90612fb3565b60405180910390fd5b6109be838383611869565b505050565b606060006109f76109d384611acf565b6040516020016109e3919061305b565b604051602081830303815290604052611c2f565b9050600d8054905081610a0a91906130ac565b9050600d8181548110610a2057610a1f612e9b565b5b906000526020600020018054610a3590612d46565b80601f0160208091040260200160405190810160405280929190818152602001828054610a6190612d46565b8015610aae5780601f10610a8357610100808354040283529160200191610aae565b820191906000526020600020905b815481529060010190602001808311610a9157829003601f168201915b5050505050915050919050565b610ad683838360405180602001604052806000815250610f26565b505050565b60606000610b0f610aeb84611acf565b604051602001610afb9190613129565b604051602081830303815290604052611c2f565b905060108054905081610b2291906130ac565b905060108181548110610b3857610b37612e9b565b5b906000526020600020018054610b4d90612d46565b80601f0160208091040260200160405190810160405280929190818152602001828054610b7990612d46565b8015610bc65780601f10610b9b57610100808354040283529160200191610bc6565b820191906000526020600020905b815481529060010190602001808311610ba957829003601f168201915b5050505050915050919050565b6000806002600084815260200190815260200160002060009054906101000a900473ffffffffffffffffffffffffffffffffffffffff169050600073ffffffffffffffffffffffffffffffffffffffff168173ffffffffffffffffffffffffffffffffffffffff1603610c7b576040517f08c379a0000000000000000000000000000000000000000000000000000000008152600401610c7290613197565b60405180910390fd5b80915050919050565b60008073ffffffffffffffffffffffffffffffffffffffff168273ffffffffffffffffffffffffffffffffffffffff1603610cf4576040517f08c379a0000000000000000000000000000000000000000000000000000000008152600401610ceb90613229565b60405180910390fd5b600360008373ffffffffffffffffffffffffffffffffffffffff1673ffffffffffffffffffffffffffffffffffffffff168152602001908152602001600020549050919050565b60086020528060005260406000206000915054906101000a900473ffffffffffffffffffffffffffffffffffffffff1681565b606060018054610d7d90612d46565b80601f0160208091040260200160405190810160405280929190818152602001828054610da990612d46565b8015610df65780601f10610dcb57610100808354040283529160200191610df6565b820191906000526020600020905b815481529060010190602001808311610dd957829003601f168201915b5050505050905090565b610e12610e0b611705565b8383611c62565b5050565b60606000610e4a610e2684611acf565b604051602001610e369190613295565b604051602081830303815290604052611c2f565b9050600e8054905081610e5d91906130ac565b9050600e8181548110610e7357610e72612e9b565b5b906000526020600020018054610e8890612d46565b80601f0160208091040260200160405190810160405280929190818152602001828054610eb490612d46565b8015610f015780601f10610ed657610100808354040283529160200191610f01565b820191906000526020600020905b815481529060010190602001808311610ee457829003601f168201915b5050505050915050919050565b60096020528060005260406000206000915090505481565b610f37610f31611705565b836117d4565b610f76576040517f08c379a0000000000000000000000000000000000000000000000000000000008152600401610f6d90612fb3565b60405180910390fd5b610f8284848484611dce565b50505050565b60606000610fbc610f9884611acf565b604051602001610fa89190613303565b604051602081830303815290604052611c2f565b9050600f8054905081610fcf91906130ac565b9050600f8181548110610fe557610fe4612e9b565b5b906000526020600020018054610ffa90612d46565b80601f016020809104026020016040519081016040528092919081815260200182805461102690612d46565b80156110735780601f1061104857610100808354040283529160200191611073565b820191906000526020600020905b81548152906001019060200180831161105657829003601f168201915b5050505050915050919050565b606061108b826116ba565b60006006600084815260200190815260200160002080546110ab90612d46565b80601f01602080910402602001604051908101604052809291908181526020018280546110d790612d46565b80156111245780601f106110f957610100808354040283529160200191611124565b820191906000526020600020905b81548152906001019060200180831161110757829003601f168201915b505050505090506000611135611e2a565b9050600081510361114a57819250505061118d565b60008251111561117f578082604051602001611167929190613325565b6040516020818303038152906040529250505061118d565b61118884611e41565b925050505b919050565b6014600960003373ffffffffffffffffffffffffffffffffffffffff1673ffffffffffffffffffffffffffffffffffffffff16815260200190815260200160002054106111de57600080fd5b60006111ea60076117c6565b905060006111f7826109c3565b9050600061120483610e16565b9050600061121184610f88565b9050600083838360405160200161122a93929190613349565b6040516020818303038152906040529050600061124686610adb565b90506000600b82600c85604051602001611263949392919061345e565b604051602081830303815290604052905060006040518060400160405280838152602001898152509050600a81908060018154018082558091505060019003906000526020600020906002020160009091909190915060008201518160000190816112ce919061363e565b50602082015181600101555050600061130f856112ea85611ea9565b6040516020016112fb929190613866565b604051602081830303815290604052611ea9565b905060008160405160200161132491906138f7565b60405160208183030381529060405290506113736040518060400160405280601581526020017f0a2d2d2d2d2d2d2d2d2d2d2d2d2d2d2d2d2d2d2d2d00000000000000000000008152506115b7565b61137c816115b7565b6113ba6040518060400160405280601581526020017f2d2d2d2d2d2d2d2d2d2d2d2d2d2d2d2d2d2d2d2d0a00000000000000000000008152506115b7565b6113c4338b61200c565b6113ce8a8261202a565b33600860008c815260200190815260200160002060006101000a81548173ffffffffffffffffffffffffffffffffffffffff021916908373ffffffffffffffffffffffffffffffffffffffff1602179055506001600960003373ffffffffffffffffffffffffffffffffffffffff1673ffffffffffffffffffffffffffffffffffffffff1681526020019081526020016000205461146c9190613919565b600960003373ffffffffffffffffffffffffffffffffffffffff1673ffffffffffffffffffffffffffffffffffffffff168152602001908152602001600020819055506114b96007612097565b7f3cd75fbce1e0440b13dfb3cc0a6b872a9b7ec5516e1d886dd90e95a9fc77748433858c6040516114ec9392919061394d565b60405180910390a1611517604051806060016040528060258152602001613ef7602591398b336120ad565b50505050505050505050565b6000600560008473ffffffffffffffffffffffffffffffffffffffff1673ffffffffffffffffffffffffffffffffffffffff16815260200190815260200160002060008373ffffffffffffffffffffffffffffffffffffffff1673ffffffffffffffffffffffffffffffffffffffff16815260200190815260200160002060009054906101000a900460ff16905092915050565b61164d816040516024016115cb9190612742565b6040516020818303038152906040527f41304fac000000000000000000000000000000000000000000000000000000007bffffffffffffffffffffffffffffffffffffffffffffffffffffffff19166020820180517bffffffffffffffffffffffffffffffffffffffffffffffffffffffff838183161783525050505061214c565b50565b60007f01ffc9a7000000000000000000000000000000000000000000000000000000007bffffffffffffffffffffffffffffffffffffffffffffffffffffffff1916827bffffffffffffffffffffffffffffffffffffffffffffffffffffffff1916149050919050565b6116c381612175565b611702576040517f08c379a00000000000000000000000000000000000000000000000000000000081526004016116f990613197565b60405180910390fd5b50565b600033905090565b816004600083815260200190815260200160002060006101000a81548173ffffffffffffffffffffffffffffffffffffffff021916908373ffffffffffffffffffffffffffffffffffffffff160217905550808273ffffffffffffffffffffffffffffffffffffffff1661178083610bd3565b73ffffffffffffffffffffffffffffffffffffffff167f8c5be1e5ebec7d5bd14f71427d1e84f3dd0314c0f7b2291e5b200ac8c7c3b92560405160405180910390a45050565b600081600001549050919050565b6000806117e083610bd3565b90508073ffffffffffffffffffffffffffffffffffffffff168473ffffffffffffffffffffffffffffffffffffffff16148061182257506118218185611523565b5b8061186057508373ffffffffffffffffffffffffffffffffffffffff16611848846105e0565b73ffffffffffffffffffffffffffffffffffffffff16145b91505092915050565b8273ffffffffffffffffffffffffffffffffffffffff1661188982610bd3565b73ffffffffffffffffffffffffffffffffffffffff16146118df576040517f08c379a00000000000000000000000000000000000000000000000000000000081526004016118d6906139fd565b60405180910390fd5b600073ffffffffffffffffffffffffffffffffffffffff168273ffffffffffffffffffffffffffffffffffffffff160361194e576040517f08c379a000000000000000000000000000000000000000000000000000000000815260040161194590613a8f565b60405180910390fd5b6119598383836121e1565b61196460008261170d565b6001600360008573ffffffffffffffffffffffffffffffffffffffff1673ffffffffffffffffffffffffffffffffffffffff16815260200190815260200160002060008282546119b49190613aaf565b925050819055506001600360008473ffffffffffffffffffffffffffffffffffffffff1673ffffffffffffffffffffffffffffffffffffffff1681526020019081526020016000206000828254611a0b9190613919565b92505081905550816002600083815260200190815260200160002060006101000a81548173ffffffffffffffffffffffffffffffffffffffff021916908373ffffffffffffffffffffffffffffffffffffffff160217905550808273ffffffffffffffffffffffffffffffffffffffff168473ffffffffffffffffffffffffffffffffffffffff167fddf252ad1be2c89b69c2b068fc378daa952ba7f163c4a11628f55a4df523b3ef60405160405180910390a4611aca8383836121e6565b505050565b606060008203611b16576040518060400160405280600181526020017f30000000000000000000000000000000000000000000000000000000000000008152509050611c2a565b600082905060005b60008214611b48578080611b3190612ef9565b915050600a82611b419190613ae3565b9150611b1e565b60008167ffffffffffffffff811115611b6457611b63612b29565b5b6040519080825280601f01601f191660200182016040528015611b965781602001600182028036833780820191505090505b5090505b60008514611c2357600182611baf9190613aaf565b9150600a85611bbe91906130ac565b6030611bca9190613919565b60f81b818381518110611be057611bdf612e9b565b5b60200101907effffffffffffffffffffffffffffffffffffffffffffffffffffffffffffff1916908160001a905350600a85611c1c9190613ae3565b9450611b9a565b8093505050505b919050565b600081604051602001611c429190613b14565b6040516020818303038152906040528051906020012060001c9050919050565b8173ffffffffffffffffffffffffffffffffffffffff168373ffffffffffffffffffffffffffffffffffffffff1603611cd0576040517f08c379a0000000000000000000000000000000000000000000000000000000008152600401611cc790613b77565b60405180910390fd5b80600560008573ffffffffffffffffffffffffffffffffffffffff1673ffffffffffffffffffffffffffffffffffffffff16815260200190815260200160002060008473ffffffffffffffffffffffffffffffffffffffff1673ffffffffffffffffffffffffffffffffffffffff16815260200190815260200160002060006101000a81548160ff0219169083151502179055508173ffffffffffffffffffffffffffffffffffffffff168373ffffffffffffffffffffffffffffffffffffffff167f17307eab39ab6107e8899845ad3d59bd9653f200f220920489ca2b5937696c3183604051611dc19190612697565b60405180910390a3505050565b611dd9848484611869565b611de5848484846121eb565b611e24576040517f08c379a0000000000000000000000000000000000000000000000000000000008152600401611e1b90613c09565b60405180910390fd5b50505050565b606060405180602001604052806000815250905090565b6060611e4c826116ba565b6000611e56611e2a565b90506000815111611e765760405180602001604052806000815250611ea1565b80611e8084611acf565b604051602001611e91929190613325565b6040516020818303038152906040525b915050919050565b60606000825103611ecb57604051806020016040528060008152509050612007565b6000604051806060016040528060408152602001613f1c6040913990506000600360028551611efa9190613919565b611f049190613ae3565b6004611f109190613c29565b67ffffffffffffffff811115611f2957611f28612b29565b5b6040519080825280601f01601f191660200182016040528015611f5b5781602001600182028036833780820191505090505b509050600182016020820185865187015b80821015611fc7576003820191508151603f8160121c168501518453600184019350603f81600c1c168501518453600184019350603f8160061c168501518453600184019350603f8116850151845360018401935050611f6c565b5050600386510660018114611fe35760028114611ff657611ffe565b603d6001830353603d6002830353611ffe565b603d60018303535b50505080925050505b919050565b612026828260405180602001604052806000815250612372565b5050565b61203382612175565b612072576040517f08c379a000000000000000000000000000000000000000000000000000000000815260040161206990613cdd565b60405180910390fd5b80600660008481526020019081526020016000209081612092919061363e565b505050565b6001816000016000828254019250508190555050565b6121478383836040516024016120c593929190613cfd565b6040516020818303038152906040527f1c7ec448000000000000000000000000000000000000000000000000000000007bffffffffffffffffffffffffffffffffffffffffffffffffffffffff19166020820180517bffffffffffffffffffffffffffffffffffffffffffffffffffffffff838183161783525050505061214c565b505050565b60008151905060006a636f6e736f6c652e6c6f679050602083016000808483855afa5050505050565b60008073ffffffffffffffffffffffffffffffffffffffff166002600084815260200190815260200160002060009054906101000a900473ffffffffffffffffffffffffffffffffffffffff1673ffffffffffffffffffffffffffffffffffffffff1614159050919050565b505050565b505050565b600061220c8473ffffffffffffffffffffffffffffffffffffffff166123cd565b15612365578373ffffffffffffffffffffffffffffffffffffffff1663150b7a02612235611705565b8786866040518563ffffffff1660e01b81526004016122579493929190613d90565b6020604051808303816000875af192505050801561229357506040513d601f19601f820116820180604052508101906122909190613df1565b60015b612315573d80600081146122c3576040519150601f19603f3d011682016040523d82523d6000602084013e6122c8565b606091505b50600081510361230d576040517f08c379a000000000000000000000000000000000000000000000000000000000815260040161230490613c09565b60405180910390fd5b805181602001fd5b63150b7a0260e01b7bffffffffffffffffffffffffffffffffffffffffffffffffffffffff1916817bffffffffffffffffffffffffffffffffffffffffffffffffffffffff19161491505061236a565b600190505b949350505050565b61237c83836123f0565b61238960008484846121eb565b6123c8576040517f08c379a00000000000000000000000000000000000000000000000000000000081526004016123bf90613c09565b60405180910390fd5b505050565b6000808273ffffffffffffffffffffffffffffffffffffffff163b119050919050565b600073ffffffffffffffffffffffffffffffffffffffff168273ffffffffffffffffffffffffffffffffffffffff160361245f576040517f08c379a000000000000000000000000000000000000000000000000000000000815260040161245690613e6a565b60405180910390fd5b61246881612175565b156124a8576040517f08c379a000000000000000000000000000000000000000000000000000000000815260040161249f90613ed6565b60405180910390fd5b6124b4600083836121e1565b6001600360008473ffffffffffffffffffffffffffffffffffffffff1673ffffffffffffffffffffffffffffffffffffffff16815260200190815260200160002060008282546125049190613919565b92505081905550816002600083815260200190815260200160002060006101000a81548173ffffffffffffffffffffffffffffffffffffffff021916908373ffffffffffffffffffffffffffffffffffffffff160217905550808273ffffffffffffffffffffffffffffffffffffffff16600073ffffffffffffffffffffffffffffffffffffffff167fddf252ad1be2c89b69c2b068fc378daa952ba7f163c4a11628f55a4df523b3ef60405160405180910390a46125c5600083836121e6565b5050565b604051806040016040528060608152602001600081525090565b6000604051905090565b600080fd5b600080fd5b60007fffffffff0000000000000000000000000000000000000000000000000000000082169050919050565b61262c816125f7565b811461263757600080fd5b50565b60008135905061264981612623565b92915050565b600060208284031215612665576126646125ed565b5b60006126738482850161263a565b91505092915050565b60008115159050919050565b6126918161267c565b82525050565b60006020820190506126ac6000830184612688565b92915050565b600081519050919050565b600082825260208201905092915050565b60005b838110156126ec5780820151818401526020810190506126d1565b60008484015250505050565b6000601f19601f8301169050919050565b6000612714826126b2565b61271e81856126bd565b935061272e8185602086016126ce565b612737816126f8565b840191505092915050565b6000602082019050818103600083015261275c8184612709565b905092915050565b6000819050919050565b61277781612764565b811461278257600080fd5b50565b6000813590506127948161276e565b92915050565b6000602082840312156127b0576127af6125ed565b5b60006127be84828501612785565b91505092915050565b600073ffffffffffffffffffffffffffffffffffffffff82169050919050565b60006127f2826127c7565b9050919050565b612802816127e7565b82525050565b600060208201905061281d60008301846127f9565b92915050565b61282c816127e7565b811461283757600080fd5b50565b60008135905061284981612823565b92915050565b60008060408385031215612866576128656125ed565b5b60006128748582860161283a565b925050602061288585828601612785565b9150509250929050565b600081519050919050565b600082825260208201905092915050565b6000819050602082019050919050565b600082825260208201905092915050565b60006128d7826126b2565b6128e181856128bb565b93506128f18185602086016126ce565b6128fa816126f8565b840191505092915050565b61290e81612764565b82525050565b6000604083016000830151848203600086015261293182826128cc565b91505060208301516129466020860182612905565b508091505092915050565b600061295d8383612914565b905092915050565b6000602082019050919050565b600061297d8261288f565b612987818561289a565b935083602082028501612999856128ab565b8060005b858110156129d557848403895281516129b68582612951565b94506129c183612965565b925060208a0199505060018101905061299d565b50829750879550505050505092915050565b60006020820190508181036000830152612a018184612972565b905092915050565b600080600060608486031215612a2257612a216125ed565b5b6000612a308682870161283a565b9350506020612a418682870161283a565b9250506040612a5286828701612785565b9150509250925092565b600060208284031215612a7257612a716125ed565b5b6000612a808482850161283a565b91505092915050565b612a9281612764565b82525050565b6000602082019050612aad6000830184612a89565b92915050565b612abc8161267c565b8114612ac757600080fd5b50565b600081359050612ad981612ab3565b92915050565b60008060408385031215612af657612af56125ed565b5b6000612b048582860161283a565b9250506020612b1585828601612aca565b9150509250929050565b600080fd5b600080fd5b7f4e487b7100000000000000000000000000000000000000000000000000000000600052604160045260246000fd5b612b61826126f8565b810181811067ffffffffffffffff82111715612b8057612b7f612b29565b5b80604052505050565b6000612b936125e3565b9050612b9f8282612b58565b919050565b600067ffffffffffffffff821115612bbf57612bbe612b29565b5b612bc8826126f8565b9050602081019050919050565b82818337600083830152505050565b6000612bf7612bf284612ba4565b612b89565b905082815260208101848484011115612c1357612c12612b24565b5b612c1e848285612bd5565b509392505050565b600082601f830112612c3b57612c3a612b1f565b5b8135612c4b848260208601612be4565b91505092915050565b60008060008060808587031215612c6e57612c6d6125ed565b5b6000612c7c8782880161283a565b9450506020612c8d8782880161283a565b9350506040612c9e87828801612785565b925050606085013567ffffffffffffffff811115612cbf57612cbe6125f2565b5b612ccb87828801612c26565b91505092959194509250565b60008060408385031215612cee57612ced6125ed565b5b6000612cfc8582860161283a565b9250506020612d0d8582860161283a565b9150509250929050565b7f4e487b7100000000000000000000000000000000000000000000000000000000600052602260045260246000fd5b60006002820490506001821680612d5e57607f821691505b602082108103612d7157612d70612d17565b5b50919050565b7f4552433732313a20617070726f76616c20746f2063757272656e74206f776e6560008201527f7200000000000000000000000000000000000000000000000000000000000000602082015250565b6000612dd36021836126bd565b9150612dde82612d77565b604082019050919050565b60006020820190508181036000830152612e0281612dc6565b9050919050565b7f4552433732313a20617070726f76652063616c6c6572206973206e6f7420746f60008201527f6b656e206f776e6572206e6f7220617070726f76656420666f7220616c6c0000602082015250565b6000612e65603e836126bd565b9150612e7082612e09565b604082019050919050565b60006020820190508181036000830152612e9481612e58565b9050919050565b7f4e487b7100000000000000000000000000000000000000000000000000000000600052603260045260246000fd5b7f4e487b7100000000000000000000000000000000000000000000000000000000600052601160045260246000fd5b6000612f0482612764565b91507fffffffffffffffffffffffffffffffffffffffffffffffffffffffffffffffff8203612f3657612f35612eca565b5b600182019050919050565b7f4552433732313a2063616c6c6572206973206e6f7420746f6b656e206f776e6560008201527f72206e6f7220617070726f766564000000000000000000000000000000000000602082015250565b6000612f9d602e836126bd565b9150612fa882612f41565b604082019050919050565b60006020820190508181036000830152612fcc81612f90565b9050919050565b600081905092915050565b7f46495253545f574f524400000000000000000000000000000000000000000000600082015250565b6000613014600a83612fd3565b915061301f82612fde565b600a82019050919050565b6000613035826126b2565b61303f8185612fd3565b935061304f8185602086016126ce565b80840191505092915050565b600061306682613007565b9150613072828461302a565b915081905092915050565b7f4e487b7100000000000000000000000000000000000000000000000000000000600052601260045260246000fd5b60006130b782612764565b91506130c283612764565b9250826130d2576130d161307d565b5b828206905092915050565b7f434f4c4f52000000000000000000000000000000000000000000000000000000600082015250565b6000613113600583612fd3565b915061311e826130dd565b600582019050919050565b600061313482613106565b9150613140828461302a565b915081905092915050565b7f4552433732313a20696e76616c696420746f6b656e2049440000000000000000600082015250565b60006131816018836126bd565b915061318c8261314b565b602082019050919050565b600060208201905081810360008301526131b081613174565b9050919050565b7f4552433732313a2061646472657373207a65726f206973206e6f74206120766160008201527f6c6964206f776e65720000000000000000000000000000000000000000000000602082015250565b60006132136029836126bd565b915061321e826131b7565b604082019050919050565b6000602082019050818103600083015261324281613206565b9050919050565b7f5345434f4e445f574f5244000000000000000000000000000000000000000000600082015250565b600061327f600b83612fd3565b915061328a82613249565b600b82019050919050565b60006132a082613272565b91506132ac828461302a565b915081905092915050565b7f54484952445f574f524400000000000000000000000000000000000000000000600082015250565b60006132ed600a83612fd3565b91506132f8826132b7565b600a82019050919050565b600061330e826132e0565b915061331a828461302a565b915081905092915050565b6000613331828561302a565b915061333d828461302a565b91508190509392505050565b6000613355828661302a565b9150613361828561302a565b915061336d828461302a565b9150819050949350505050565b60008190508160005260206000209050919050565b6000815461339c81612d46565b6133a68186612fd3565b945060018216600081146133c157600181146133d657613409565b60ff1983168652811515820286019350613409565b6133df8561337a565b60005b83811015613401578154818901526001820191506020810190506133e2565b838801955050505b50505092915050565b7f3c2f746578743e3c2f7376673e00000000000000000000000000000000000000600082015250565b6000613448600d83612fd3565b915061345382613412565b600d82019050919050565b600061346a828761338f565b9150613476828661302a565b9150613482828561338f565b915061348e828461302a565b91506134998261343b565b915081905095945050505050565b60006020601f8301049050919050565b600082821b905092915050565b6000600883026134f47fffffffffffffffffffffffffffffffffffffffffffffffffffffffffffffffff826134b7565b6134fe86836134b7565b95508019841693508086168417925050509392505050565b6000819050919050565b600061353b61353661353184612764565b613516565b612764565b9050919050565b6000819050919050565b61355583613520565b61356961356182613542565b8484546134c4565b825550505050565b600090565b61357e613571565b61358981848461354c565b505050565b5b818110156135ad576135a2600082613576565b60018101905061358f565b5050565b601f8211156135f2576135c38161337a565b6135cc846134a7565b810160208510156135db578190505b6135ef6135e7856134a7565b83018261358e565b50505b505050565b600082821c905092915050565b6000613615600019846008026135f7565b1980831691505092915050565b600061362e8383613604565b9150826002028217905092915050565b613647826126b2565b67ffffffffffffffff8111156136605761365f612b29565b5b61366a8254612d46565b6136758282856135b1565b600060209050601f8311600181146136a85760008415613696578287015190505b6136a08582613622565b865550613708565b601f1984166136b68661337a565b60005b828110156136de578489015182556001820191506020850194506020810190506136b9565b868310156136fb57848901516136f7601f891682613604565b8355505b6001600288020188555050505b505050505050565b7f7b226e616d65223a202200000000000000000000000000000000000000000000600082015250565b6000613746600a83612fd3565b915061375182613710565b600a82019050919050565b7f222c20226465736372697074696f6e223a20224120686967686c79206163636c60008201527f61696d656420636f6c6c656374696f6e206f66204f6e65205069656365204e4660208201527f54732e222c2022696d616765223a2022646174613a696d6167652f7376672b7860408201527f6d6c3b6261736536342c00000000000000000000000000000000000000000000606082015250565b6000613804606a83612fd3565b915061380f8261375c565b606a82019050919050565b7f227d000000000000000000000000000000000000000000000000000000000000600082015250565b6000613850600283612fd3565b915061385b8261381a565b600282019050919050565b600061387182613739565b915061387d828561302a565b9150613888826137f7565b9150613894828461302a565b915061389f82613843565b91508190509392505050565b7f646174613a6170706c69636174696f6e2f6a736f6e3b6261736536342c000000600082015250565b60006138e1601d83612fd3565b91506138ec826138ab565b601d82019050919050565b6000613902826138d4565b915061390e828461302a565b915081905092915050565b600061392482612764565b915061392f83612764565b925082820190508082111561394757613946612eca565b5b92915050565b600060608201905061396260008301866127f9565b81810360208301526139748185612709565b90506139836040830184612a89565b949350505050565b7f4552433732313a207472616e736665722066726f6d20696e636f72726563742060008201527f6f776e6572000000000000000000000000000000000000000000000000000000602082015250565b60006139e76025836126bd565b91506139f28261398b565b604082019050919050565b60006020820190508181036000830152613a16816139da565b9050919050565b7f4552433732313a207472616e7366657220746f20746865207a65726f2061646460008201527f7265737300000000000000000000000000000000000000000000000000000000602082015250565b6000613a796024836126bd565b9150613a8482613a1d565b604082019050919050565b60006020820190508181036000830152613aa881613a6c565b9050919050565b6000613aba82612764565b9150613ac583612764565b9250828203905081811115613add57613adc612eca565b5b92915050565b6000613aee82612764565b9150613af983612764565b925082613b0957613b0861307d565b5b828204905092915050565b6000613b20828461302a565b915081905092915050565b7f4552433732313a20617070726f766520746f2063616c6c657200000000000000600082015250565b6000613b616019836126bd565b9150613b6c82613b2b565b602082019050919050565b60006020820190508181036000830152613b9081613b54565b9050919050565b7f4552433732313a207472616e7366657220746f206e6f6e20455243373231526560008201527f63656976657220696d706c656d656e7465720000000000000000000000000000602082015250565b6000613bf36032836126bd565b9150613bfe82613b97565b604082019050919050565b60006020820190508181036000830152613c2281613be6565b9050919050565b6000613c3482612764565b9150613c3f83612764565b9250828202613c4d81612764565b91508282048414831517613c6457613c63612eca565b5b5092915050565b7f45524337323155524953746f726167653a2055524920736574206f66206e6f6e60008201527f6578697374656e7420746f6b656e000000000000000000000000000000000000602082015250565b6000613cc7602e836126bd565b9150613cd282613c6b565b604082019050919050565b60006020820190508181036000830152613cf681613cba565b9050919050565b60006060820190508181036000830152613d178186612709565b9050613d266020830185612a89565b613d3360408301846127f9565b949350505050565b600081519050919050565b600082825260208201905092915050565b6000613d6282613d3b565b613d6c8185613d46565b9350613d7c8185602086016126ce565b613d85816126f8565b840191505092915050565b6000608082019050613da560008301876127f9565b613db260208301866127f9565b613dbf6040830185612a89565b8181036060830152613dd18184613d57565b905095945050505050565b600081519050613deb81612623565b92915050565b600060208284031215613e0757613e066125ed565b5b6000613e1584828501613ddc565b91505092915050565b7f4552433732313a206d696e7420746f20746865207a65726f2061646472657373600082015250565b6000613e546020836126bd565b9150613e5f82613e1e565b602082019050919050565b60006020820190508181036000830152613e8381613e47565b9050919050565b7f4552433732313a20746f6b656e20616c7265616479206d696e74656400000000600082015250565b6000613ec0601c836126bd565b9150613ecb82613e8a565b602082019050919050565b60006020820190508181036000830152613eef81613eb3565b905091905056fe416e204e465420772f20494420257320686173206265656e206d696e74656420746f2025734142434445464748494a4b4c4d4e4f505152535455565758595a6162636465666768696a6b6c6d6e6f707172737475767778797a303132333435363738392b2fa26469706673582212209cfa121191bf38afbce66b38dbf8dfe14361a7fdcf575eb2daf0cb387c055c7064736f6c634300081100333c73766720786d6c6e733d27687474703a2f2f7777772e77332e6f72672f323030302f73766727207072657365727665417370656374526174696f3d27784d696e594d696e206d656574272076696577426f783d273020302033353020333530273e3c7374796c653e2e62617365207b2066696c6c3a2077686974653b20666f6e742d66616d696c793a2073657269663b20666f6e742d73697a653a20323470783b207d3c2f7374796c653e3c726563742077696474683d273130302527206865696768743d2731303025272066696c6c3d27272f3e3c7465787420783d273530252720793d273530252720636c6173733d27626173652720646f6d696e616e742d626173656c696e653d276d6964646c652720746578742d616e63686f723d276d6964646c65273e",
  "linkReferences": {},
  "deployedLinkReferences": {}
}