{
  "_format": "hh-sol-artifact-1",
  "contractName": "MyEpicNFT",
  "sourceName": "contracts/MyEpicNFT.sol",
  "abi": [
    {
      "inputs": [],
      "stateMutability": "nonpayable",
      "type": "constructor"
    },
    {
      "anonymous": false,
      "inputs": [
        {
          "indexed": true,
          "internalType": "address",
          "name": "owner",
          "type": "address"
        },
        {
          "indexed": true,
          "internalType": "address",
          "name": "approved",
          "type": "address"
        },
        {
          "indexed": true,
          "internalType": "uint256",
          "name": "tokenId",
          "type": "uint256"
        }
      ],
      "name": "Approval",
      "type": "event"
    },
    {
      "anonymous": false,
      "inputs": [
        {
          "indexed": true,
          "internalType": "address",
          "name": "owner",
          "type": "address"
        },
        {
          "indexed": true,
          "internalType": "address",
          "name": "operator",
          "type": "address"
        },
        {
          "indexed": false,
          "internalType": "bool",
          "name": "approved",
          "type": "bool"
        }
      ],
      "name": "ApprovalForAll",
      "type": "event"
    },
    {
      "anonymous": false,
      "inputs": [
        {
          "indexed": true,
          "internalType": "address",
          "name": "from",
          "type": "address"
        },
        {
          "indexed": true,
          "internalType": "address",
          "name": "to",
          "type": "address"
        },
        {
          "indexed": true,
          "internalType": "uint256",
          "name": "tokenId",
          "type": "uint256"
        }
      ],
      "name": "Transfer",
      "type": "event"
    },
    {
      "inputs": [
        {
          "internalType": "uint256",
          "name": "",
          "type": "uint256"
        }
      ],
      "name": "NFTToAddress",
      "outputs": [
        {
          "internalType": "address",
          "name": "",
          "type": "address"
        }
      ],
      "stateMutability": "view",
      "type": "function"
    },
    {
      "inputs": [
        {
          "internalType": "uint256",
          "name": "",
          "type": "uint256"
        }
      ],
      "name": "NFTToSVG",
      "outputs": [
        {
          "internalType": "string",
          "name": "",
          "type": "string"
        }
      ],
      "stateMutability": "view",
      "type": "function"
    },
    {
      "inputs": [
        {
          "internalType": "address",
          "name": "",
          "type": "address"
        }
      ],
      "name": "addressToNFTCount",
      "outputs": [
        {
          "internalType": "uint256",
          "name": "",
          "type": "uint256"
        }
      ],
      "stateMutability": "view",
      "type": "function"
    },
    {
      "inputs": [
        {
          "internalType": "address",
          "name": "to",
          "type": "address"
        },
        {
          "internalType": "uint256",
          "name": "tokenId",
          "type": "uint256"
        }
      ],
      "name": "approve",
      "outputs": [],
      "stateMutability": "nonpayable",
      "type": "function"
    },
    {
      "inputs": [
        {
          "internalType": "address",
          "name": "owner",
          "type": "address"
        }
      ],
      "name": "balanceOf",
      "outputs": [
        {
          "internalType": "uint256",
          "name": "",
          "type": "uint256"
        }
      ],
      "stateMutability": "view",
      "type": "function"
    },
    {
      "inputs": [],
      "name": "fetchCollection",
      "outputs": [
        {
          "internalType": "string[]",
          "name": "",
          "type": "string[]"
        }
      ],
      "stateMutability": "view",
      "type": "function"
    },
    {
      "inputs": [
        {
          "internalType": "uint256",
          "name": "tokenId",
          "type": "uint256"
        }
      ],
      "name": "getApproved",
      "outputs": [
        {
          "internalType": "address",
          "name": "",
          "type": "address"
        }
      ],
      "stateMutability": "view",
      "type": "function"
    },
    {
      "inputs": [
        {
          "internalType": "address",
          "name": "owner",
          "type": "address"
        },
        {
          "internalType": "address",
          "name": "operator",
          "type": "address"
        }
      ],
      "name": "isApprovedForAll",
      "outputs": [
        {
          "internalType": "bool",
          "name": "",
          "type": "bool"
        }
      ],
      "stateMutability": "view",
      "type": "function"
    },
    {
      "inputs": [],
      "name": "makeAnEpicNFT",
      "outputs": [],
      "stateMutability": "nonpayable",
      "type": "function"
    },
    {
      "inputs": [],
      "name": "name",
      "outputs": [
        {
          "internalType": "string",
          "name": "",
          "type": "string"
        }
      ],
      "stateMutability": "view",
      "type": "function"
    },
    {
      "inputs": [
        {
          "internalType": "uint256",
          "name": "tokenId",
          "type": "uint256"
        }
      ],
      "name": "ownerOf",
      "outputs": [
        {
          "internalType": "address",
          "name": "",
          "type": "address"
        }
      ],
      "stateMutability": "view",
      "type": "function"
    },
    {
      "inputs": [
        {
          "internalType": "uint256",
          "name": "tokenId",
          "type": "uint256"
        }
      ],
      "name": "pickRandomFirstWord",
      "outputs": [
        {
          "internalType": "string",
          "name": "",
          "type": "string"
        }
      ],
      "stateMutability": "view",
      "type": "function"
    },
    {
      "inputs": [
        {
          "internalType": "uint256",
          "name": "tokenId",
          "type": "uint256"
        }
      ],
      "name": "pickRandomSecondWord",
      "outputs": [
        {
          "internalType": "string",
          "name": "",
          "type": "string"
        }
      ],
      "stateMutability": "view",
      "type": "function"
    },
    {
      "inputs": [
        {
          "internalType": "uint256",
          "name": "tokenId",
          "type": "uint256"
        }
      ],
      "name": "pickRandomThirdWord",
      "outputs": [
        {
          "internalType": "string",
          "name": "",
          "type": "string"
        }
      ],
      "stateMutability": "view",
      "type": "function"
    },
    {
      "inputs": [
        {
          "internalType": "address",
          "name": "from",
          "type": "address"
        },
        {
          "internalType": "address",
          "name": "to",
          "type": "address"
        },
        {
          "internalType": "uint256",
          "name": "tokenId",
          "type": "uint256"
        }
      ],
      "name": "safeTransferFrom",
      "outputs": [],
      "stateMutability": "nonpayable",
      "type": "function"
    },
    {
      "inputs": [
        {
          "internalType": "address",
          "name": "from",
          "type": "address"
        },
        {
          "internalType": "address",
          "name": "to",
          "type": "address"
        },
        {
          "internalType": "uint256",
          "name": "tokenId",
          "type": "uint256"
        },
        {
          "internalType": "bytes",
          "name": "data",
          "type": "bytes"
        }
      ],
      "name": "safeTransferFrom",
      "outputs": [],
      "stateMutability": "nonpayable",
      "type": "function"
    },
    {
      "inputs": [
        {
          "internalType": "address",
          "name": "operator",
          "type": "address"
        },
        {
          "internalType": "bool",
          "name": "approved",
          "type": "bool"
        }
      ],
      "name": "setApprovalForAll",
      "outputs": [],
      "stateMutability": "nonpayable",
      "type": "function"
    },
    {
      "inputs": [
        {
          "internalType": "bytes4",
          "name": "interfaceId",
          "type": "bytes4"
        }
      ],
      "name": "supportsInterface",
      "outputs": [
        {
          "internalType": "bool",
          "name": "",
          "type": "bool"
        }
      ],
      "stateMutability": "view",
      "type": "function"
    },
    {
      "inputs": [],
      "name": "symbol",
      "outputs": [
        {
          "internalType": "string",
          "name": "",
          "type": "string"
        }
      ],
      "stateMutability": "view",
      "type": "function"
    },
    {
      "inputs": [
        {
          "internalType": "uint256",
          "name": "tokenId",
          "type": "uint256"
        }
      ],
      "name": "tokenURI",
      "outputs": [
        {
          "internalType": "string",
          "name": "",
          "type": "string"
        }
      ],
      "stateMutability": "view",
      "type": "function"
    },
    {
      "inputs": [
        {
          "internalType": "address",
          "name": "from",
          "type": "address"
        },
        {
          "internalType": "address",
          "name": "to",
          "type": "address"
        },
        {
          "internalType": "uint256",
          "name": "tokenId",
          "type": "uint256"
        }
      ],
      "name": "transferFrom",
      "outputs": [],
      "stateMutability": "nonpayable",
      "type": "function"
    }
  ],
  "bytecode": "0x608060405260405180610160016040528061012f81526020016200489161012f9139600b9081620000319190620009d0565b506040518060c001604052806040518060400160405280600481526020017f4e616d690000000000000000000000000000000000000000000000000000000081525081526020016040518060400160405280600681526020017f4d696861776b000000000000000000000000000000000000000000000000000081525081526020016040518060400160405280600581526020017f55736f707000000000000000000000000000000000000000000000000000000081525081526020016040518060400160405280600a81526020017f446f666c616d696e676f0000000000000000000000000000000000000000000081525081526020016040518060400160405280600681526020017f416b61696e75000000000000000000000000000000000000000000000000000081525081526020016040518060400160405280600381526020017f4163650000000000000000000000000000000000000000000000000000000000815250815250600c906006620001af92919062000669565b506040518060c001604052806040518060400160405280600a81526020017f456e7465727461696e730000000000000000000000000000000000000000000081525081526020016040518060400160405280600481526020017f456174730000000000000000000000000000000000000000000000000000000081525081526020016040518060400160405280600681526020017f466967687473000000000000000000000000000000000000000000000000000081525081526020016040518060400160405280600481526020017f487567730000000000000000000000000000000000000000000000000000000081525081526020016040518060400160405280600581526020017f487572747300000000000000000000000000000000000000000000000000000081525081526020016040518060400160405280600681526020017f4368617365730000000000000000000000000000000000000000000000000000815250815250600d9060066200032d92919062000669565b506040518060c001604052806040518060400160405280600581526020017f4c7566667900000000000000000000000000000000000000000000000000000081525081526020016040518060400160405280600481526020017f5a6f726f0000000000000000000000000000000000000000000000000000000081525081526020016040518060400160405280600681526020017f5368616e6b73000000000000000000000000000000000000000000000000000081525081526020016040518060400160405280600781526020017f43686f707065720000000000000000000000000000000000000000000000000081525081526020016040518060400160405280600681526020017f416f6b696a69000000000000000000000000000000000000000000000000000081525081526020016040518060400160405280600581526020017f4b6169646f000000000000000000000000000000000000000000000000000000815250815250600e906006620004ab92919062000669565b50348015620004b957600080fd5b506040518060400160405280600981526020017f5371756172654e465400000000000000000000000000000000000000000000008152506040518060400160405280600681526020017f53515541524500000000000000000000000000000000000000000000000000008152508160009081620005379190620009d0565b508060019081620005499190620009d0565b505050620005976040518060400160405280601c81526020017f54686973206973206d79204e465420636f6e74726163742062727568000000008152506200059d60201b6200144f1760201c565b62000b6a565b6200063d81604051602401620005b4919062000b46565b6040516020818303038152906040527f41304fac000000000000000000000000000000000000000000000000000000007bffffffffffffffffffffffffffffffffffffffffffffffffffffffff19166020820180517bffffffffffffffffffffffffffffffffffffffffffffffffffffffff83818316178352505050506200064060201b60201c565b50565b60008151905060006a636f6e736f6c652e6c6f679050602083016000808483855afa5050505050565b828054828255906000526020600020908101928215620006b6579160200282015b82811115620006b5578251829081620006a49190620009d0565b50916020019190600101906200068a565b5b509050620006c59190620006c9565b5090565b5b80821115620006ed5760008181620006e39190620006f1565b50600101620006ca565b5090565b508054620006ff90620007bf565b6000825580601f1062000713575062000734565b601f01602090049060005260206000209081019062000733919062000737565b5b50565b5b808211156200075257600081600090555060010162000738565b5090565b600081519050919050565b7f4e487b7100000000000000000000000000000000000000000000000000000000600052604160045260246000fd5b7f4e487b7100000000000000000000000000000000000000000000000000000000600052602260045260246000fd5b60006002820490506001821680620007d857607f821691505b602082108103620007ee57620007ed62000790565b5b50919050565b60008190508160005260206000209050919050565b60006020601f8301049050919050565b600082821b905092915050565b600060088302620008587fffffffffffffffffffffffffffffffffffffffffffffffffffffffffffffffff8262000819565b62000864868362000819565b95508019841693508086168417925050509392505050565b6000819050919050565b6000819050919050565b6000620008b1620008ab620008a5846200087c565b62000886565b6200087c565b9050919050565b6000819050919050565b620008cd8362000890565b620008e5620008dc82620008b8565b84845462000826565b825550505050565b600090565b620008fc620008ed565b62000909818484620008c2565b505050565b5b81811015620009315762000925600082620008f2565b6001810190506200090f565b5050565b601f82111562000980576200094a81620007f4565b620009558462000809565b8101602085101562000965578190505b6200097d620009748562000809565b8301826200090e565b50505b505050565b600082821c905092915050565b6000620009a56000198460080262000985565b1980831691505092915050565b6000620009c0838362000992565b9150826002028217905092915050565b620009db8262000756565b67ffffffffffffffff811115620009f757620009f662000761565b5b62000a038254620007bf565b62000a1082828562000935565b600060209050601f83116001811462000a48576000841562000a33578287015190505b62000a3f8582620009b2565b86555062000aaf565b601f19841662000a5886620007f4565b60005b8281101562000a825784890151825560018201915060208501945060208101905062000a5b565b8683101562000aa2578489015162000a9e601f89168262000992565b8355505b6001600288020188555050505b505050505050565b600082825260208201905092915050565b60005b8381101562000ae857808201518184015260208101905062000acb565b60008484015250505050565b6000601f19601f8301169050919050565b600062000b128262000756565b62000b1e818562000ab7565b935062000b3081856020860162000ac8565b62000b3b8162000af4565b840191505092915050565b6000602082019050818103600083015262000b62818462000b05565b905092915050565b613d178062000b7a6000396000f3fe608060405234801561001057600080fd5b50600436106101375760003560e01c806370a08231116100b8578063b6f6bc781161007c578063b6f6bc7814610386578063b88d4fde146103b6578063c575757a146103d2578063c87b56dd14610402578063de9d132f14610432578063e985e9c51461043c57610137565b806370a08231146102bc5780637811296a146102ec57806395d89b411461031c578063a22cb4651461033a578063b187301f1461035657610137565b80630df38145116100ff5780630df381451461020657806323b872dd146102245780632de38d681461024057806342842e0e146102705780636352211e1461028c57610137565b806301ffc9a71461013c57806306fdde031461016c578063081812fc1461018a578063095ea7b3146101ba5780630b44a9bd146101d6575b600080fd5b610156600480360381019061015191906124cd565b61046c565b6040516101639190612515565b60405180910390f35b61017461054e565b60405161018191906125c0565b60405180910390f35b6101a4600480360381019061019f9190612618565b6105e0565b6040516101b19190612686565b60405180910390f35b6101d460048036038101906101cf91906126cd565b610626565b005b6101f060048036038101906101eb9190612618565b61073d565b6040516101fd91906125c0565b60405180910390f35b61020e6107dd565b60405161021b9190612819565b60405180910390f35b61023e6004803603810190610239919061283b565b6109d0565b005b61025a60048036038101906102559190612618565b610a30565b60405161026791906125c0565b60405180910390f35b61028a6004803603810190610285919061283b565b610b28565b005b6102a660048036038101906102a19190612618565b610b48565b6040516102b39190612686565b60405180910390f35b6102d660048036038101906102d1919061288e565b610bf9565b6040516102e391906128ca565b60405180910390f35b61030660048036038101906103019190612618565b610cb0565b6040516103139190612686565b60405180910390f35b610324610ce3565b60405161033191906125c0565b60405180910390f35b610354600480360381019061034f9190612911565b610d75565b005b610370600480360381019061036b9190612618565b610d8b565b60405161037d91906125c0565b60405180910390f35b6103a0600480360381019061039b919061288e565b610e83565b6040516103ad91906128ca565b60405180910390f35b6103d060048036038101906103cb9190612a86565b610e9b565b005b6103ec60048036038101906103e79190612618565b610efd565b6040516103f991906125c0565b60405180910390f35b61041c60048036038101906104179190612618565b610ff5565b60405161042991906125c0565b60405180910390f35b61043a611107565b005b61045660048036038101906104519190612b09565b6113bb565b6040516104639190612515565b60405180910390f35b60007f80ac58cd000000000000000000000000000000000000000000000000000000007bffffffffffffffffffffffffffffffffffffffffffffffffffffffff1916827bffffffffffffffffffffffffffffffffffffffffffffffffffffffff1916148061053757507f5b5e139f000000000000000000000000000000000000000000000000000000007bffffffffffffffffffffffffffffffffffffffffffffffffffffffff1916827bffffffffffffffffffffffffffffffffffffffffffffffffffffffff1916145b806105475750610546826114e8565b5b9050919050565b60606000805461055d90612b78565b80601f016020809104026020016040519081016040528092919081815260200182805461058990612b78565b80156105d65780601f106105ab576101008083540402835291602001916105d6565b820191906000526020600020905b8154815290600101906020018083116105b957829003601f168201915b5050505050905090565b60006105eb82611552565b6004600083815260200190815260200160002060009054906101000a900473ffffffffffffffffffffffffffffffffffffffff169050919050565b600061063182610b48565b90508073ffffffffffffffffffffffffffffffffffffffff168373ffffffffffffffffffffffffffffffffffffffff16036106a1576040517f08c379a000000000000000000000000000000000000000000000000000000000815260040161069890612c1b565b60405180910390fd5b8073ffffffffffffffffffffffffffffffffffffffff166106c061159d565b73ffffffffffffffffffffffffffffffffffffffff1614806106ef57506106ee816106e961159d565b6113bb565b5b61072e576040517f08c379a000000000000000000000000000000000000000000000000000000000815260040161072590612cad565b60405180910390fd5b61073883836115a5565b505050565b600a602052806000526040600020600091509050805461075c90612b78565b80601f016020809104026020016040519081016040528092919081815260200182805461078890612b78565b80156107d55780601f106107aa576101008083540402835291602001916107d5565b820191906000526020600020905b8154815290600101906020018083116107b857829003601f168201915b505050505081565b60606000600960003373ffffffffffffffffffffffffffffffffffffffff1673ffffffffffffffffffffffffffffffffffffffff1681526020019081526020016000205467ffffffffffffffff81111561083a5761083961295b565b5b60405190808252806020026020018201604052801561086d57816020015b60608152602001906001900390816108585790505b5090506000805b61087e600761165e565b8110156109c7573373ffffffffffffffffffffffffffffffffffffffff166008600083815260200190815260200160002060009054906101000a900473ffffffffffffffffffffffffffffffffffffffff1673ffffffffffffffffffffffffffffffffffffffff16036109b457600a6000828152602001908152602001600020805461090990612b78565b80601f016020809104026020016040519081016040528092919081815260200182805461093590612b78565b80156109825780601f1061095757610100808354040283529160200191610982565b820191906000526020600020905b81548152906001019060200180831161096557829003601f168201915b505050505083838151811061099a57610999612ccd565b5b602002602001018190525081806109b090612d2b565b9250505b80806109bf90612d2b565b915050610874565b50819250505090565b6109e16109db61159d565b8261166c565b610a20576040517f08c379a0000000000000000000000000000000000000000000000000000000008152600401610a1790612de5565b60405180910390fd5b610a2b838383611701565b505050565b60606000610a64610a4084611967565b604051602001610a509190612e8d565b604051602081830303815290604052611ac7565b9050600c8054905081610a779190612ede565b9050600c8181548110610a8d57610a8c612ccd565b5b906000526020600020018054610aa290612b78565b80601f0160208091040260200160405190810160405280929190818152602001828054610ace90612b78565b8015610b1b5780601f10610af057610100808354040283529160200191610b1b565b820191906000526020600020905b815481529060010190602001808311610afe57829003601f168201915b5050505050915050919050565b610b4383838360405180602001604052806000815250610e9b565b505050565b6000806002600084815260200190815260200160002060009054906101000a900473ffffffffffffffffffffffffffffffffffffffff169050600073ffffffffffffffffffffffffffffffffffffffff168173ffffffffffffffffffffffffffffffffffffffff1603610bf0576040517f08c379a0000000000000000000000000000000000000000000000000000000008152600401610be790612f5b565b60405180910390fd5b80915050919050565b60008073ffffffffffffffffffffffffffffffffffffffff168273ffffffffffffffffffffffffffffffffffffffff1603610c69576040517f08c379a0000000000000000000000000000000000000000000000000000000008152600401610c6090612fed565b60405180910390fd5b600360008373ffffffffffffffffffffffffffffffffffffffff1673ffffffffffffffffffffffffffffffffffffffff168152602001908152602001600020549050919050565b60086020528060005260406000206000915054906101000a900473ffffffffffffffffffffffffffffffffffffffff1681565b606060018054610cf290612b78565b80601f0160208091040260200160405190810160405280929190818152602001828054610d1e90612b78565b8015610d6b5780601f10610d4057610100808354040283529160200191610d6b565b820191906000526020600020905b815481529060010190602001808311610d4e57829003601f168201915b5050505050905090565b610d87610d8061159d565b8383611afa565b5050565b60606000610dbf610d9b84611967565b604051602001610dab9190613059565b604051602081830303815290604052611ac7565b9050600d8054905081610dd29190612ede565b9050600d8181548110610de857610de7612ccd565b5b906000526020600020018054610dfd90612b78565b80601f0160208091040260200160405190810160405280929190818152602001828054610e2990612b78565b8015610e765780601f10610e4b57610100808354040283529160200191610e76565b820191906000526020600020905b815481529060010190602001808311610e5957829003601f168201915b5050505050915050919050565b60096020528060005260406000206000915090505481565b610eac610ea661159d565b8361166c565b610eeb576040517f08c379a0000000000000000000000000000000000000000000000000000000008152600401610ee290612de5565b60405180910390fd5b610ef784848484611c66565b50505050565b60606000610f31610f0d84611967565b604051602001610f1d91906130c7565b604051602081830303815290604052611ac7565b9050600e8054905081610f449190612ede565b9050600e8181548110610f5a57610f59612ccd565b5b906000526020600020018054610f6f90612b78565b80601f0160208091040260200160405190810160405280929190818152602001828054610f9b90612b78565b8015610fe85780601f10610fbd57610100808354040283529160200191610fe8565b820191906000526020600020905b815481529060010190602001808311610fcb57829003601f168201915b5050505050915050919050565b606061100082611552565b600060066000848152602001908152602001600020805461102090612b78565b80601f016020809104026020016040519081016040528092919081815260200182805461104c90612b78565b80156110995780601f1061106e57610100808354040283529160200191611099565b820191906000526020600020905b81548152906001019060200180831161107c57829003601f168201915b5050505050905060006110aa611cc2565b905060008151036110bf578192505050611102565b6000825111156110f45780826040516020016110dc9291906130e9565b60405160208183030381529060405292505050611102565b6110fd84611cd9565b925050505b919050565b6000611113600761165e565b9050600061112082610a30565b9050600061112d83610d8b565b9050600061113a84610efd565b905060008383836040516020016111539392919061310d565b60405160208183030381529060405290506000600b85858560405160200161117e9493929190613222565b604051602081830303815290604052905080600a600088815260200190815260200160002090816111af9190613402565b5060006111e4836111bf84611d41565b6040516020016111d092919061362a565b604051602081830303815290604052611d41565b90506000816040516020016111f991906136bb565b60405160208183030381529060405290506112486040518060400160405280601581526020017f0a2d2d2d2d2d2d2d2d2d2d2d2d2d2d2d2d2d2d2d2d000000000000000000000081525061144f565b6112518161144f565b61128f6040518060400160405280601581526020017f2d2d2d2d2d2d2d2d2d2d2d2d2d2d2d2d2d2d2d2d0a000000000000000000000081525061144f565b6112993389611ea4565b6112a38882611ec2565b33600860008a815260200190815260200160002060006101000a81548173ffffffffffffffffffffffffffffffffffffffff021916908373ffffffffffffffffffffffffffffffffffffffff1602179055506001600960003373ffffffffffffffffffffffffffffffffffffffff1673ffffffffffffffffffffffffffffffffffffffff1681526020019081526020016000205461134191906136dd565b600960003373ffffffffffffffffffffffffffffffffffffffff1673ffffffffffffffffffffffffffffffffffffffff1681526020019081526020016000208190555061138e6007611f2f565b6113b1604051806060016040528060258152602001613c7d602591398933611f45565b5050505050505050565b6000600560008473ffffffffffffffffffffffffffffffffffffffff1673ffffffffffffffffffffffffffffffffffffffff16815260200190815260200160002060008373ffffffffffffffffffffffffffffffffffffffff1673ffffffffffffffffffffffffffffffffffffffff16815260200190815260200160002060009054906101000a900460ff16905092915050565b6114e58160405160240161146391906125c0565b6040516020818303038152906040527f41304fac000000000000000000000000000000000000000000000000000000007bffffffffffffffffffffffffffffffffffffffffffffffffffffffff19166020820180517bffffffffffffffffffffffffffffffffffffffffffffffffffffffff8381831617835250505050611fe4565b50565b60007f01ffc9a7000000000000000000000000000000000000000000000000000000007bffffffffffffffffffffffffffffffffffffffffffffffffffffffff1916827bffffffffffffffffffffffffffffffffffffffffffffffffffffffff1916149050919050565b61155b8161200d565b61159a576040517f08c379a000000000000000000000000000000000000000000000000000000000815260040161159190612f5b565b60405180910390fd5b50565b600033905090565b816004600083815260200190815260200160002060006101000a81548173ffffffffffffffffffffffffffffffffffffffff021916908373ffffffffffffffffffffffffffffffffffffffff160217905550808273ffffffffffffffffffffffffffffffffffffffff1661161883610b48565b73ffffffffffffffffffffffffffffffffffffffff167f8c5be1e5ebec7d5bd14f71427d1e84f3dd0314c0f7b2291e5b200ac8c7c3b92560405160405180910390a45050565b600081600001549050919050565b60008061167883610b48565b90508073ffffffffffffffffffffffffffffffffffffffff168473ffffffffffffffffffffffffffffffffffffffff1614806116ba57506116b981856113bb565b5b806116f857508373ffffffffffffffffffffffffffffffffffffffff166116e0846105e0565b73ffffffffffffffffffffffffffffffffffffffff16145b91505092915050565b8273ffffffffffffffffffffffffffffffffffffffff1661172182610b48565b73ffffffffffffffffffffffffffffffffffffffff1614611777576040517f08c379a000000000000000000000000000000000000000000000000000000000815260040161176e90613783565b60405180910390fd5b600073ffffffffffffffffffffffffffffffffffffffff168273ffffffffffffffffffffffffffffffffffffffff16036117e6576040517f08c379a00000000000000000000000000000000000000000000000000000000081526004016117dd90613815565b60405180910390fd5b6117f1838383612079565b6117fc6000826115a5565b6001600360008573ffffffffffffffffffffffffffffffffffffffff1673ffffffffffffffffffffffffffffffffffffffff168152602001908152602001600020600082825461184c9190613835565b925050819055506001600360008473ffffffffffffffffffffffffffffffffffffffff1673ffffffffffffffffffffffffffffffffffffffff16815260200190815260200160002060008282546118a391906136dd565b92505081905550816002600083815260200190815260200160002060006101000a81548173ffffffffffffffffffffffffffffffffffffffff021916908373ffffffffffffffffffffffffffffffffffffffff160217905550808273ffffffffffffffffffffffffffffffffffffffff168473ffffffffffffffffffffffffffffffffffffffff167fddf252ad1be2c89b69c2b068fc378daa952ba7f163c4a11628f55a4df523b3ef60405160405180910390a461196283838361207e565b505050565b6060600082036119ae576040518060400160405280600181526020017f30000000000000000000000000000000000000000000000000000000000000008152509050611ac2565b600082905060005b600082146119e05780806119c990612d2b565b915050600a826119d99190613869565b91506119b6565b60008167ffffffffffffffff8111156119fc576119fb61295b565b5b6040519080825280601f01601f191660200182016040528015611a2e5781602001600182028036833780820191505090505b5090505b60008514611abb57600182611a479190613835565b9150600a85611a569190612ede565b6030611a6291906136dd565b60f81b818381518110611a7857611a77612ccd565b5b60200101907effffffffffffffffffffffffffffffffffffffffffffffffffffffffffffff1916908160001a905350600a85611ab49190613869565b9450611a32565b8093505050505b919050565b600081604051602001611ada919061389a565b6040516020818303038152906040528051906020012060001c9050919050565b8173ffffffffffffffffffffffffffffffffffffffff168373ffffffffffffffffffffffffffffffffffffffff1603611b68576040517f08c379a0000000000000000000000000000000000000000000000000000000008152600401611b5f906138fd565b60405180910390fd5b80600560008573ffffffffffffffffffffffffffffffffffffffff1673ffffffffffffffffffffffffffffffffffffffff16815260200190815260200160002060008473ffffffffffffffffffffffffffffffffffffffff1673ffffffffffffffffffffffffffffffffffffffff16815260200190815260200160002060006101000a81548160ff0219169083151502179055508173ffffffffffffffffffffffffffffffffffffffff168373ffffffffffffffffffffffffffffffffffffffff167f17307eab39ab6107e8899845ad3d59bd9653f200f220920489ca2b5937696c3183604051611c599190612515565b60405180910390a3505050565b611c71848484611701565b611c7d84848484612083565b611cbc576040517f08c379a0000000000000000000000000000000000000000000000000000000008152600401611cb39061398f565b60405180910390fd5b50505050565b606060405180602001604052806000815250905090565b6060611ce482611552565b6000611cee611cc2565b90506000815111611d0e5760405180602001604052806000815250611d39565b80611d1884611967565b604051602001611d299291906130e9565b6040516020818303038152906040525b915050919050565b60606000825103611d6357604051806020016040528060008152509050611e9f565b6000604051806060016040528060408152602001613ca26040913990506000600360028551611d9291906136dd565b611d9c9190613869565b6004611da891906139af565b67ffffffffffffffff811115611dc157611dc061295b565b5b6040519080825280601f01601f191660200182016040528015611df35781602001600182028036833780820191505090505b509050600182016020820185865187015b80821015611e5f576003820191508151603f8160121c168501518453600184019350603f81600c1c168501518453600184019350603f8160061c168501518453600184019350603f8116850151845360018401935050611e04565b5050600386510660018114611e7b5760028114611e8e57611e96565b603d6001830353603d6002830353611e96565b603d60018303535b50505080925050505b919050565b611ebe82826040518060200160405280600081525061220a565b5050565b611ecb8261200d565b611f0a576040517f08c379a0000000000000000000000000000000000000000000000000000000008152600401611f0190613a63565b60405180910390fd5b80600660008481526020019081526020016000209081611f2a9190613402565b505050565b6001816000016000828254019250508190555050565b611fdf838383604051602401611f5d93929190613a83565b6040516020818303038152906040527f1c7ec448000000000000000000000000000000000000000000000000000000007bffffffffffffffffffffffffffffffffffffffffffffffffffffffff19166020820180517bffffffffffffffffffffffffffffffffffffffffffffffffffffffff8381831617835250505050611fe4565b505050565b60008151905060006a636f6e736f6c652e6c6f679050602083016000808483855afa5050505050565b60008073ffffffffffffffffffffffffffffffffffffffff166002600084815260200190815260200160002060009054906101000a900473ffffffffffffffffffffffffffffffffffffffff1673ffffffffffffffffffffffffffffffffffffffff1614159050919050565b505050565b505050565b60006120a48473ffffffffffffffffffffffffffffffffffffffff16612265565b156121fd578373ffffffffffffffffffffffffffffffffffffffff1663150b7a026120cd61159d565b8786866040518563ffffffff1660e01b81526004016120ef9493929190613b16565b6020604051808303816000875af192505050801561212b57506040513d601f19601f820116820180604052508101906121289190613b77565b60015b6121ad573d806000811461215b576040519150601f19603f3d011682016040523d82523d6000602084013e612160565b606091505b5060008151036121a5576040517f08c379a000000000000000000000000000000000000000000000000000000000815260040161219c9061398f565b60405180910390fd5b805181602001fd5b63150b7a0260e01b7bffffffffffffffffffffffffffffffffffffffffffffffffffffffff1916817bffffffffffffffffffffffffffffffffffffffffffffffffffffffff191614915050612202565b600190505b949350505050565b6122148383612288565b6122216000848484612083565b612260576040517f08c379a00000000000000000000000000000000000000000000000000000000081526004016122579061398f565b60405180910390fd5b505050565b6000808273ffffffffffffffffffffffffffffffffffffffff163b119050919050565b600073ffffffffffffffffffffffffffffffffffffffff168273ffffffffffffffffffffffffffffffffffffffff16036122f7576040517f08c379a00000000000000000000000000000000000000000000000000000000081526004016122ee90613bf0565b60405180910390fd5b6123008161200d565b15612340576040517f08c379a000000000000000000000000000000000000000000000000000000000815260040161233790613c5c565b60405180910390fd5b61234c60008383612079565b6001600360008473ffffffffffffffffffffffffffffffffffffffff1673ffffffffffffffffffffffffffffffffffffffff168152602001908152602001600020600082825461239c91906136dd565b92505081905550816002600083815260200190815260200160002060006101000a81548173ffffffffffffffffffffffffffffffffffffffff021916908373ffffffffffffffffffffffffffffffffffffffff160217905550808273ffffffffffffffffffffffffffffffffffffffff16600073ffffffffffffffffffffffffffffffffffffffff167fddf252ad1be2c89b69c2b068fc378daa952ba7f163c4a11628f55a4df523b3ef60405160405180910390a461245d6000838361207e565b5050565b6000604051905090565b600080fd5b600080fd5b60007fffffffff0000000000000000000000000000000000000000000000000000000082169050919050565b6124aa81612475565b81146124b557600080fd5b50565b6000813590506124c7816124a1565b92915050565b6000602082840312156124e3576124e261246b565b5b60006124f1848285016124b8565b91505092915050565b60008115159050919050565b61250f816124fa565b82525050565b600060208201905061252a6000830184612506565b92915050565b600081519050919050565b600082825260208201905092915050565b60005b8381101561256a57808201518184015260208101905061254f565b60008484015250505050565b6000601f19601f8301169050919050565b600061259282612530565b61259c818561253b565b93506125ac81856020860161254c565b6125b581612576565b840191505092915050565b600060208201905081810360008301526125da8184612587565b905092915050565b6000819050919050565b6125f5816125e2565b811461260057600080fd5b50565b600081359050612612816125ec565b92915050565b60006020828403121561262e5761262d61246b565b5b600061263c84828501612603565b91505092915050565b600073ffffffffffffffffffffffffffffffffffffffff82169050919050565b600061267082612645565b9050919050565b61268081612665565b82525050565b600060208201905061269b6000830184612677565b92915050565b6126aa81612665565b81146126b557600080fd5b50565b6000813590506126c7816126a1565b92915050565b600080604083850312156126e4576126e361246b565b5b60006126f2858286016126b8565b925050602061270385828601612603565b9150509250929050565b600081519050919050565b600082825260208201905092915050565b6000819050602082019050919050565b600082825260208201905092915050565b600061275582612530565b61275f8185612739565b935061276f81856020860161254c565b61277881612576565b840191505092915050565b600061278f838361274a565b905092915050565b6000602082019050919050565b60006127af8261270d565b6127b98185612718565b9350836020820285016127cb85612729565b8060005b8581101561280757848403895281516127e88582612783565b94506127f383612797565b925060208a019950506001810190506127cf565b50829750879550505050505092915050565b6000602082019050818103600083015261283381846127a4565b905092915050565b6000806000606084860312156128545761285361246b565b5b6000612862868287016126b8565b9350506020612873868287016126b8565b925050604061288486828701612603565b9150509250925092565b6000602082840312156128a4576128a361246b565b5b60006128b2848285016126b8565b91505092915050565b6128c4816125e2565b82525050565b60006020820190506128df60008301846128bb565b92915050565b6128ee816124fa565b81146128f957600080fd5b50565b60008135905061290b816128e5565b92915050565b600080604083850312156129285761292761246b565b5b6000612936858286016126b8565b9250506020612947858286016128fc565b9150509250929050565b600080fd5b600080fd5b7f4e487b7100000000000000000000000000000000000000000000000000000000600052604160045260246000fd5b61299382612576565b810181811067ffffffffffffffff821117156129b2576129b161295b565b5b80604052505050565b60006129c5612461565b90506129d1828261298a565b919050565b600067ffffffffffffffff8211156129f1576129f061295b565b5b6129fa82612576565b9050602081019050919050565b82818337600083830152505050565b6000612a29612a24846129d6565b6129bb565b905082815260208101848484011115612a4557612a44612956565b5b612a50848285612a07565b509392505050565b600082601f830112612a6d57612a6c612951565b5b8135612a7d848260208601612a16565b91505092915050565b60008060008060808587031215612aa057612a9f61246b565b5b6000612aae878288016126b8565b9450506020612abf878288016126b8565b9350506040612ad087828801612603565b925050606085013567ffffffffffffffff811115612af157612af0612470565b5b612afd87828801612a58565b91505092959194509250565b60008060408385031215612b2057612b1f61246b565b5b6000612b2e858286016126b8565b9250506020612b3f858286016126b8565b9150509250929050565b7f4e487b7100000000000000000000000000000000000000000000000000000000600052602260045260246000fd5b60006002820490506001821680612b9057607f821691505b602082108103612ba357612ba2612b49565b5b50919050565b7f4552433732313a20617070726f76616c20746f2063757272656e74206f776e6560008201527f7200000000000000000000000000000000000000000000000000000000000000602082015250565b6000612c0560218361253b565b9150612c1082612ba9565b604082019050919050565b60006020820190508181036000830152612c3481612bf8565b9050919050565b7f4552433732313a20617070726f76652063616c6c6572206973206e6f7420746f60008201527f6b656e206f776e6572206e6f7220617070726f76656420666f7220616c6c0000602082015250565b6000612c97603e8361253b565b9150612ca282612c3b565b604082019050919050565b60006020820190508181036000830152612cc681612c8a565b9050919050565b7f4e487b7100000000000000000000000000000000000000000000000000000000600052603260045260246000fd5b7f4e487b7100000000000000000000000000000000000000000000000000000000600052601160045260246000fd5b6000612d36826125e2565b91507fffffffffffffffffffffffffffffffffffffffffffffffffffffffffffffffff8203612d6857612d67612cfc565b5b600182019050919050565b7f4552433732313a2063616c6c6572206973206e6f7420746f6b656e206f776e6560008201527f72206e6f7220617070726f766564000000000000000000000000000000000000602082015250565b6000612dcf602e8361253b565b9150612dda82612d73565b604082019050919050565b60006020820190508181036000830152612dfe81612dc2565b9050919050565b600081905092915050565b7f46495253545f574f524400000000000000000000000000000000000000000000600082015250565b6000612e46600a83612e05565b9150612e5182612e10565b600a82019050919050565b6000612e6782612530565b612e718185612e05565b9350612e8181856020860161254c565b80840191505092915050565b6000612e9882612e39565b9150612ea48284612e5c565b915081905092915050565b7f4e487b7100000000000000000000000000000000000000000000000000000000600052601260045260246000fd5b6000612ee9826125e2565b9150612ef4836125e2565b925082612f0457612f03612eaf565b5b828206905092915050565b7f4552433732313a20696e76616c696420746f6b656e2049440000000000000000600082015250565b6000612f4560188361253b565b9150612f5082612f0f565b602082019050919050565b60006020820190508181036000830152612f7481612f38565b9050919050565b7f4552433732313a2061646472657373207a65726f206973206e6f74206120766160008201527f6c6964206f776e65720000000000000000000000000000000000000000000000602082015250565b6000612fd760298361253b565b9150612fe282612f7b565b604082019050919050565b6000602082019050818103600083015261300681612fca565b9050919050565b7f5345434f4e445f574f5244000000000000000000000000000000000000000000600082015250565b6000613043600b83612e05565b915061304e8261300d565b600b82019050919050565b600061306482613036565b91506130708284612e5c565b915081905092915050565b7f54484952445f574f524400000000000000000000000000000000000000000000600082015250565b60006130b1600a83612e05565b91506130bc8261307b565b600a82019050919050565b60006130d2826130a4565b91506130de8284612e5c565b915081905092915050565b60006130f58285612e5c565b91506131018284612e5c565b91508190509392505050565b60006131198286612e5c565b91506131258285612e5c565b91506131318284612e5c565b9150819050949350505050565b60008190508160005260206000209050919050565b6000815461316081612b78565b61316a8186612e05565b94506001821660008114613185576001811461319a576131cd565b60ff19831686528115158202860193506131cd565b6131a38561313e565b60005b838110156131c5578154818901526001820191506020810190506131a6565b838801955050505b50505092915050565b7f3c2f746578743e3c2f7376673e00000000000000000000000000000000000000600082015250565b600061320c600d83612e05565b9150613217826131d6565b600d82019050919050565b600061322e8287613153565b915061323a8286612e5c565b91506132468285612e5c565b91506132528284612e5c565b915061325d826131ff565b915081905095945050505050565b60006020601f8301049050919050565b600082821b905092915050565b6000600883026132b87fffffffffffffffffffffffffffffffffffffffffffffffffffffffffffffffff8261327b565b6132c2868361327b565b95508019841693508086168417925050509392505050565b6000819050919050565b60006132ff6132fa6132f5846125e2565b6132da565b6125e2565b9050919050565b6000819050919050565b613319836132e4565b61332d61332582613306565b848454613288565b825550505050565b600090565b613342613335565b61334d818484613310565b505050565b5b818110156133715761336660008261333a565b600181019050613353565b5050565b601f8211156133b6576133878161313e565b6133908461326b565b8101602085101561339f578190505b6133b36133ab8561326b565b830182613352565b50505b505050565b600082821c905092915050565b60006133d9600019846008026133bb565b1980831691505092915050565b60006133f283836133c8565b9150826002028217905092915050565b61340b82612530565b67ffffffffffffffff8111156134245761342361295b565b5b61342e8254612b78565b613439828285613375565b600060209050601f83116001811461346c576000841561345a578287015190505b61346485826133e6565b8655506134cc565b601f19841661347a8661313e565b60005b828110156134a25784890151825560018201915060208501945060208101905061347d565b868310156134bf57848901516134bb601f8916826133c8565b8355505b6001600288020188555050505b505050505050565b7f7b226e616d65223a202200000000000000000000000000000000000000000000600082015250565b600061350a600a83612e05565b9150613515826134d4565b600a82019050919050565b7f222c20226465736372697074696f6e223a20224120686967686c79206163636c60008201527f61696d656420636f6c6c656374696f6e206f6620737175617265732e222c202260208201527f696d616765223a2022646174613a696d6167652f7376672b786d6c3b6261736560408201527f36342c0000000000000000000000000000000000000000000000000000000000606082015250565b60006135c8606383612e05565b91506135d382613520565b606382019050919050565b7f227d000000000000000000000000000000000000000000000000000000000000600082015250565b6000613614600283612e05565b915061361f826135de565b600282019050919050565b6000613635826134fd565b91506136418285612e5c565b915061364c826135bb565b91506136588284612e5c565b915061366382613607565b91508190509392505050565b7f646174613a6170706c69636174696f6e2f6a736f6e3b6261736536342c000000600082015250565b60006136a5601d83612e05565b91506136b08261366f565b601d82019050919050565b60006136c682613698565b91506136d28284612e5c565b915081905092915050565b60006136e8826125e2565b91506136f3836125e2565b925082820190508082111561370b5761370a612cfc565b5b92915050565b7f4552433732313a207472616e736665722066726f6d20696e636f72726563742060008201527f6f776e6572000000000000000000000000000000000000000000000000000000602082015250565b600061376d60258361253b565b915061377882613711565b604082019050919050565b6000602082019050818103600083015261379c81613760565b9050919050565b7f4552433732313a207472616e7366657220746f20746865207a65726f2061646460008201527f7265737300000000000000000000000000000000000000000000000000000000602082015250565b60006137ff60248361253b565b915061380a826137a3565b604082019050919050565b6000602082019050818103600083015261382e816137f2565b9050919050565b6000613840826125e2565b915061384b836125e2565b925082820390508181111561386357613862612cfc565b5b92915050565b6000613874826125e2565b915061387f836125e2565b92508261388f5761388e612eaf565b5b828204905092915050565b60006138a68284612e5c565b915081905092915050565b7f4552433732313a20617070726f766520746f2063616c6c657200000000000000600082015250565b60006138e760198361253b565b91506138f2826138b1565b602082019050919050565b60006020820190508181036000830152613916816138da565b9050919050565b7f4552433732313a207472616e7366657220746f206e6f6e20455243373231526560008201527f63656976657220696d706c656d656e7465720000000000000000000000000000602082015250565b600061397960328361253b565b91506139848261391d565b604082019050919050565b600060208201905081810360008301526139a88161396c565b9050919050565b60006139ba826125e2565b91506139c5836125e2565b92508282026139d3816125e2565b915082820484148315176139ea576139e9612cfc565b5b5092915050565b7f45524337323155524953746f726167653a2055524920736574206f66206e6f6e60008201527f6578697374656e7420746f6b656e000000000000000000000000000000000000602082015250565b6000613a4d602e8361253b565b9150613a58826139f1565b604082019050919050565b60006020820190508181036000830152613a7c81613a40565b9050919050565b60006060820190508181036000830152613a9d8186612587565b9050613aac60208301856128bb565b613ab96040830184612677565b949350505050565b600081519050919050565b600082825260208201905092915050565b6000613ae882613ac1565b613af28185613acc565b9350613b0281856020860161254c565b613b0b81612576565b840191505092915050565b6000608082019050613b2b6000830187612677565b613b386020830186612677565b613b4560408301856128bb565b8181036060830152613b578184613add565b905095945050505050565b600081519050613b71816124a1565b92915050565b600060208284031215613b8d57613b8c61246b565b5b6000613b9b84828501613b62565b91505092915050565b7f4552433732313a206d696e7420746f20746865207a65726f2061646472657373600082015250565b6000613bda60208361253b565b9150613be582613ba4565b602082019050919050565b60006020820190508181036000830152613c0981613bcd565b9050919050565b7f4552433732313a20746f6b656e20616c7265616479206d696e74656400000000600082015250565b6000613c46601c8361253b565b9150613c5182613c10565b602082019050919050565b60006020820190508181036000830152613c7581613c39565b905091905056fe416e204e465420772f20494420257320686173206265656e206d696e74656420746f2025734142434445464748494a4b4c4d4e4f505152535455565758595a6162636465666768696a6b6c6d6e6f707172737475767778797a303132333435363738392b2fa264697066735822122041d28499fb64564f209dec022e6bfad63b8b01a660debdd43c692e101a1d39ae64736f6c634300081100333c73766720786d6c6e733d27687474703a2f2f7777772e77332e6f72672f323030302f73766727207072657365727665417370656374526174696f3d27784d696e594d696e206d656574272076696577426f783d273020302033353020333530273e3c7374796c653e2e62617365207b2066696c6c3a2077686974653b20666f6e742d66616d696c793a2073657269663b20666f6e742d73697a653a20323470783b207d3c2f7374796c653e3c726563742077696474683d273130302527206865696768743d2731303025272066696c6c3d27626c61636b27202f3e3c7465787420783d273530252720793d273530252720636c6173733d27626173652720646f6d696e616e742d626173656c696e653d276d6964646c652720746578742d616e63686f723d276d6964646c65273e",
  "linkReferences": {},
  "deployedLinkReferences": {}
}